{
  "contractName": "Integers",
  "abi": [
    {
      "constant": true,
      "inputs": [
        {
          "name": "_value",
          "type": "string"
        }
      ],
      "name": "parseInt",
      "outputs": [
        {
          "name": "_ret",
          "type": "uint256"
        }
      ],
      "payable": false,
      "stateMutability": "pure",
      "type": "function"
    },
    {
      "constant": true,
      "inputs": [
        {
          "name": "_base",
          "type": "uint8"
        }
      ],
      "name": "toByte",
      "outputs": [
        {
          "name": "_ret",
          "type": "bytes1"
        }
      ],
      "payable": false,
      "stateMutability": "pure",
      "type": "function"
    }
  ],
  "bytecode": "0x6103b1610030600b82828239805160001a6073146000811461002057610022565bfe5b5030600052607381538281f3007300000000000000000000000000000000000000003014608060405260043610610063576000357c0100000000000000000000000000000000000000000000000000000000900463ffffffff16806342346c5e14610068578063a86b73f0146100d8575b600080fd5b6100c2600480360381019080803590602001908201803590602001908080601f0160208091040260200160405190810160405280939291908181526020018383808284378201915050505050509192919290505050610153565b6040518082815260200191505060405180910390f35b6100f9600480360381019080803560ff169060200190929190505050610372565b60405180827effffffffffffffffffffffffffffffffffffffffffffffffffffffffffffff19167effffffffffffffffffffffffffffffffffffffffffffffffffffffffffffff1916815260200191505060405180910390f35b6000606060008084925060019150600183510390505b6000811015801561017a5750825181105b1561036a5760307f01000000000000000000000000000000000000000000000000000000000000000283828151811015156101b157fe5b9060200101517f010000000000000000000000000000000000000000000000000000000000000090047f0100000000000000000000000000000000000000000000000000000000000000027effffffffffffffffffffffffffffffffffffffffffffffffffffffffffffff1916101580156102c9575060397f010000000000000000000000000000000000000000000000000000000000000002838281518110151561025957fe5b9060200101517f010000000000000000000000000000000000000000000000000000000000000090047f0100000000000000000000000000000000000000000000000000000000000000027effffffffffffffffffffffffffffffffffffffffffffffffffffffffffffff191611155b15156102d157fe5b81603084838151811015156102e257fe5b9060200101517f010000000000000000000000000000000000000000000000000000000000000090047f0100000000000000000000000000000000000000000000000000000000000000027f01000000000000000000000000000000000000000000000000000000000000009004030284019350600a82029150808060019003915050610169565b505050919050565b60006001590182815380519150509190505600a165627a7a72305820c1d1d32a46a07228fe3fc59a15e8036b6bbae372eb1fc3634e62419a5e9dde750029",
  "source": "pragma solidity ^0.4.0;\r\n\r\n/**\r\n * Integers Library\r\n * \r\n * In summary this is a simple library of integer functions which allow a simple\r\n * conversion to and from strings\r\n * \r\n * @author James Lockhart <james@n3tw0rk.co.uk>\r\n */\r\nlibrary Integers {\r\n    /**\r\n     * Parse Int\r\n     * \r\n     * Converts an ASCII string value into an uint as long as the string \r\n     * its self is a valid unsigned integer\r\n     * \r\n     * @param _value The ASCII string to be converted to an unsigned integer\r\n     * @return uint The unsigned value of the ASCII string\r\n     */\r\n    function parseInt(string _value) \r\n        public pure\r\n        returns (uint _ret) {\r\n        bytes memory _bytesValue = bytes(_value);\r\n        uint j = 1;\r\n        for(uint i = _bytesValue.length-1; i >= 0 && i < _bytesValue.length; i--) {\r\n            assert(_bytesValue[i] >= 48 && _bytesValue[i] <= 57);\r\n            _ret += (uint(_bytesValue[i]) - 48)*j;\r\n            j*=10;\r\n        }\r\n    }\r\n    \r\n    /**\r\n     * To String\r\n     * \r\n     * Converts an unsigned integer to the ASCII string equivalent value\r\n     * \r\n     * @param _base The unsigned integer to be converted to a string\r\n     * @return string The resulting ASCII string value\r\n     */\r\n    function toString(uint _base) \r\n        internal pure\r\n        returns (string) {\r\n        bytes memory _tmp = new bytes(32);\r\n        uint i;\r\n        for(i = 0;_base > 0;i++) {\r\n            _tmp[i] = byte((_base % 10) + 48);\r\n            _base /= 10;\r\n        }\r\n        bytes memory _real = new bytes(i--);\r\n        for(uint j = 0; j < _real.length; j++) {\r\n            _real[j] = _tmp[i--];\r\n        }\r\n        return string(_real);\r\n    }\r\n\r\n    /**\r\n     * To Byte\r\n     *\r\n     * Convert an 8 bit unsigned integer to a byte\r\n     *\r\n     * @param _base The 8 bit unsigned integer\r\n     * @return byte The byte equivalent\r\n     */\r\n    function toByte(uint8 _base) \r\n        public pure\r\n        returns (byte _ret) {\r\n        assembly {\r\n            let m_alloc := add(msize(),0x1)\r\n            mstore8(m_alloc, _base)\r\n            _ret := mload(m_alloc)\r\n        }\r\n    }\r\n\r\n    /**\r\n     * To Bytes\r\n     *\r\n     * Converts an unsigned integer to bytes\r\n     *\r\n     * @param _base The integer to be converted to bytes\r\n     * @return bytes The bytes equivalent \r\n     */\r\n    function toBytes(uint _base) \r\n        internal pure\r\n        returns (bytes _ret) {\r\n        assembly {\r\n            let m_alloc := add(msize(),0x1)\r\n            _ret := mload(m_alloc)\r\n            mstore(_ret, 0x20)\r\n            mstore(add(_ret, 0x20), _base)\r\n        }\r\n    }\r\n}",
  "sourcePath": "C:\\Users\\sukiy\\Documents\\Shari\\contracts\\Integers.sol",
  "compiler": {
    "name": "solc",
    "version": "0.4.24+commit.e67f0147.Emscripten.clang"
  },
  "schemaVersion": "2.0.1",
  "updatedAt": "2018-08-04T23:47:49.232Z"
}